:020000040800F2
:10000000FF4F0020911B0008D91B0008D91B0008D6
:10001000D91B0008D91B0008D91B000800000000EC
:10002000000000000000000000000000D91B0008D4
:10003000D91B000800000000D91B0008D91B0008CC
:10004000D91B0008D91B0008D91B0008D91B0008C0
:10005000D91B0008D91B0008D91B0008D91B0008B0
:10006000D91B0008D91B0008D91B0008D91B0008A0
:10007000D91B0008D91B0008D91B0008D91B000890
:10008000D91B0008D91B0008D91B0008D91B000880
:10009000D91B0008D91B0008D91B0008D91B000870
:1000A000D91B0008D91B0008D91B0008D91B000860
:1000B000D91B0008D91B0008D91B0008D91B000850
:1000C000D91B0008D91B0008D91B0008D91B000840
:1000D000D91B0008D91B0008D91B0008D91B000830
:1000E000D91B0008D91B0008D91B0008000000001C
:1000F0000000000000000000000000000000000000
:0C01000000000000000000005FF808F1A3
:10010C0010B5054C237833B9044B13B10448AFF345
:10011C0000800123237010BD480400200000000063
:10012C00B01E0008084B10B51BB108480849AFF3C6
:10013C0000800848036803B910BD074B002BFBD0A7
:10014C00BDE81040184700BF00000000B01E0008BA
:10015C004C0400204404002000000000154B002B30
:10016C0008BF134B9D46A3F5803A00218B460F46E2
:10017C001348144A121A01F063FD0F4B002B00D0E8
:10018C0098470E4B002B00D098470020002104000C
:10019C000D000D48002802D00C4801F013FE01F0B0
:1001AC0027FD2000290000F0B5F801F011FD00BF7B
:1001BC00000008000000000000000000000000002B
:1001CC004804002078040020D11D0008DD1D000823
:1001DC006020000800000020440400204804002097
:1001EC00780400200F4B1A6842F001021A6059681B
:1001FC000D4A0A405A601A6822F0847222F4803246
:10020C001A601A6822F480221A605A6822F4FE02DC
:10021C005A604FF41F029A604FF00062034B9A60D1
:10022C00704700BF001002400000FFF800ED00E036
:10023C001D4B5B6803F00C03042B06D0082B08D075
:10024C0013BB1A4A1A4B1A6021E0184A184B1A6051
:10025C001DE0154A53685268C3F38343023312F40A
:10026C00803F05D1134A02FB03F3114A13600EE0E1
:10027C000D4A526812F4003F14BF0E4A0B4A02FB9F
:10028C0003F30B4A136002E0084A094B1A60064B51
:10029C005B68C3F30313064A13441979C9B2136894
:1002AC00CB401360704700BF0010024000127A0070
:1002BC000400002000093D0000B591B000230B9311
:1002CC000C930D930E930F93029303930493079344
:1002DC00099302230193012205921022069208939E
:1002EC004FF460130A9301A800F01CF900B1FEE76B
:1002FC000F230B9302210C9100230D930F934FF4BA
:10030C0080630E930BA800F08DFD00B1FEE711B0D9
:10031C005DF804FB70B582B000F056F8FFF7CCFF27
:10032C00114B9A6942F008029A619B6903F0080329
:10033C000193019B0D4901234B608B600323CB6020
:10034C004FF400730B600A4801F042F8084E4FF46A
:10035C00007542F210743046294601F071FA2046BD
:10036C0000F052F8F7E700BF0010024064040020D0
:10037C00000C0140FEE700BF704700BF704700BF94
:10038C0010B5064B4FF0FF32DA6000241C61DA60C6
:10039C00DC60FFF7F3FF204610BD00BF00100240E9
:1003AC0010B5044600F02CFF064BA3FB003080096F
:1003BC0001F038FB4FF0FF302146002201F0B8FA73
:1003CC00002010BDD34D621008B5074A136843F0E6
:1003DC0010031360032001F08DFA0F20FFF7E0FFEC
:1003EC00FFF7CAFF002008BD00200240024A136834
:1003FC0001331360704700BF74040020014B186870
:10040C00704700BF7404002010B582B00190FFF754
:10041C00F5FF0446FFF7F2FF019B001B9842F9D34E
:10042C0002B010BD024A136823F002031360704738
:10043C0010E000E0024A136843F0020313607047B7
:10044C0010E000E04FF08070704700BF044B18685C
:10045C00044B93FAA3F3B3FA83F3DBB2D84070479F
:10046C00002004E00000FFFF024B1868C0F30B00F3
:10047C00704700BF002004E0024A536843F00103B8
:10048C0053607047002004E0024A536823F00103D4
:10049C0053607047002004E0024A536843F00203A3
:1004AC0053607047002004E0024A536823F00203B3
:1004BC0053607047002004E0024A536843F0040381
:1004CC0053607047002004E0024A536823F0040391
:1004DC0053607047002004E010B4114B5A6822F0AE
:1004EC0003025A601A6822F0847222F480321A6075
:1004FC001A6822F480221A6000245C601968F822C1
:10050C0092FAA2F2B2FA82F2D2B2102000FA02F2FD
:10051C0021F0F8010A431A609C605DF8044B7047A7
:10052C00001002402DE9F04182B0054618B9C448CC
:10053C00FD21FFF71FFF2B68002B00F0DB8113F070
:10054C000F0F03D1BE48FE21FFF714FF2B6813F0E9
:10055C00010F00F0F4806B68012B06D9052B04D039
:10056C00B7484FF48271FFF705FFB64B5B6803F099
:10057C000C03042B0AD0B34B5B6803F00C03082B61
:10058C0030D1B04B5B6813F4803F2BD04FF4003369
:10059C0093FAA3F3B3FA83F343F02003C3F34213A8
:1005AC00012B02D1A74B1A6807E04FF4003393FAE2
:1005BC00A3F3B3FA83F3A34B5A6A4FF4003393FAC1
:1005CC00A3F3B3FA83F303F01F0322FA03F313F03C
:1005DC00010F00F0B4806B6823F00403012B40F092
:1005EC00F683ACE0974B1A6822F480321A601A68D2
:1005FC0022F480221A60FFF701FF80464FF400348A
:10060C00904E41F2883706E0FFF7F8FEC8EB000089
:10061C00B84200F2DE8394FAA4F3B3FA83F343F006
:10062C002003C3F34213012B01D1326804E094FA86
:10063C00A4F3B3FA83F3726A94FAA4F3B3FA83F3D0
:10064C0003F01F0322FA03F313F0010FDCD17D4AF0
:10065C00136823F4803313606B68012B09D11346A4
:10066C00126822F480221A601A6842F480321A60EE
:10067C000AE0052B03D10522734B1A7004E0714A72
:10068C00136823F4802313606B6863B3FFF7B6FE23
:10069C0080464FF400346B4E41F2883706E0FFF78A
:1006AC00ADFEC8EB0000B84200F2958394FAA4F3B7
:1006BC00B3FA83F343F02003C3F34213012B01D1AC
:1006CC00326804E094FAA4F3B3FA83F3726A94FAEE
:1006DC00A4F3B3FA83F303F01F0322FA03F313F02A
:1006EC00010FDCD02BE0FFF789FE80464FF400347D
:1006FC00544E41F2883706E0FFF780FEC8EB00004D
:10070C00B84200F26A8394FAA4F3B3FA83F343F089
:10071C002003C3F34213012B01D1326804E094FA95
:10072C00A4F3B3FA83F3726A94FAA4F3B3FA83F3DF
:10073C0003F01F0322FA03F313F0010FDCD12B6833
:10074C0013F0020F00F0D6802B69012B04D93C4822
:10075C004FF4A371FFF70EFE6B691F2B04D93848B9
:10076C0040F24711FFF706FE364B5B6813F00C0F97
:10077C000AD0344B5B6803F00C03082B39D1314B96
:10078C005B6813F4803F34D1022393FAA3F3B3FADA
:10079C0083F343F02003C3F34213012B02D1294B03
:1007AC001A6806E0022393FAA3F3B3FA83F3254BFA
:1007BC005A6A022393FAA3F3B3FA83F303F01F03E9
:1007CC0022FA03F313F0010F03D02B69012B40F035
:1007DC0006831C480268F82393FAA3F3B3FA83F355
:1007EC00DBB26969994022F0F80241EA0203036026
:1007FC0080E02B69002B48D0012292FAA2F3B3FAC5
:10080C0083F3DBB29B0003F1844303F584031A608A
:10081C00FFF7F4FD074602240A4E05E0FFF7EEFD54
:10082C00C01B642800F2DD8294FAA4F3B3FA83F3BC
:10083C0043F02003C3F34213012B07D132680AE0C3
:10084C00F01E0008001002400210024094FAA4F3BB
:10085C00B3FA83F3726A94FAA4F3B3FA83F303F052
:10086C001F0322FA03F313F0010FD7D0C14802681B
:10087C00F82393FAA3F3B3FA83F3DBB269699940D3
:10088C0022F0F8030B43036034E0012393FAA3F343
:10089C00B3FA83F3DBB29B0003F1844303F58403C7
:1008AC0000221A60FFF7AAFD07460224B14E05E0AC
:1008BC00FFF7A4FDC01B642800F2958294FAA4F300
:1008CC00B3FA83F343F02003C3F34213012B01D19A
:1008DC00326804E094FAA4F3B3FA83F3726A94FADC
:1008EC00A4F3B3FA83F303F01F0322FA03F313F018
:1008FC00010FDDD12B6813F0080F60D0AB69012B11
:10090C0004D99D4840F28711FFF734FDAB6963B3FE
:10091C00012292FAA2F3B3FA83F3DBB2974941F8BE
:10092C002320FFF76BFD07460224924E05E0FFF7EC
:10093C0065FDC01B642800F2588294FAA4F3B3FA44
:10094C0083F394FAA4F3B3FA83F3726A94FAA4F3DC
:10095C00B3FA83F303F01F0322FA03F313F0010F2E
:10096C00E5D00120FFF750FD29E0012393FAA3F312
:10097C00B3FA83F3DBB20021804A42F82310FFF76D
:10098C003DFD074602247B4E05E0FFF737FDC01BFB
:10099C00642800F22C8294FAA4F3B3FA83F394FA49
:1009AC00A4F3B3FA83F3726A94FAA4F3B3FA83F35D
:1009BC0003F01F0322FA03F313F0010FE5D12B68A8
:1009CC0013F0040F00F00281EB68012B06D9052B04
:1009DC0004D069484FF4DA71FFF7CCFC654BDA6947
:1009EC0042F08052DA61DB6903F080530193019B82
:1009FC00634A136843F480731360FFF7FFFC0646E9
:100A0C005F4C05E0FFF7FAFC801B642800F2F181D3
:100A1C00236813F4807FF5D0012393FAA3F3B3FA80
:100A2C0083F3DBB2574A002142F82310042393FAD4
:100A3C00A3F3B3FA83F3DBB242F82310FFF7DEFC27
:100A4C00804602244B4E41F2883706E0FFF7D6FC75
:100A5C00C8EB0000B84200F2CE8194FAA4F3B3FACA
:100A6C0083F394FAA4F3B3FA83F343F04003C3F390
:100A7C004213022B0CBF326A726A94FAA4F3B3FAD3
:100A8C0083F303F01F0322FA03F313F0010FDDD1FC
:100A9C00EB6893B9012393FAA3F3B3FA83F3DBB2B4
:100AAC00384A002142F82310042393FAA3F3B3FA33
:100ABC0083F3DBB242F8231026E0012B12D104237E
:100ACC0093FAA3F3B3FA83F3DBB22E4A002142F874
:100ADC002310012191FAA1F3B3FA83F3DBB242F8AC
:100AEC00231011E0012191FAA1F3B3FA83F3DBB2E5
:100AFC00244A002042F82300042393FAA3F3B3FA08
:100B0C0083F3DBB242F82310EB68012B2AD1FFF7F9
:100B1C0075FC80460224174E41F2883706E0FFF739
:100B2C006DFCC8EB0000B84200F2678194FAA4F3A4
:100B3C00B3FA83F394FAA4F3B3FA83F343F04003C8
:100B4C00C3F34213022B0CBF326A726A94FAA4F3F9
:100B5C00B3FA83F303F01F0322FA03F313F0010F2C
:100B6C00DDD033E0FFF74AFC80460224014E41F20F
:100B7C00883710E000100240F01E0008800442424A
:100B8C000070004000044242FFF738FCC8EB000044
:100B9C00B84200F2348194FAA4F3B3FA83F394FAD2
:100BAC00A4F3B3FA83F343F04003C3F34213022BD1
:100BBC000CBF326A726A94FAA4F3B3FA83F303F0AB
:100BCC001F0322FA03F313F0010FDDD1EB69022BA3
:100BDC0004D9924840F2F911FFF7CCFBEB69002BDA
:100BEC0000F00F818E4A526802F00C02082A00F0C5
:100BFC000A81022B40F0B3802B6A33F4803304D08B
:100C0C00864840F20221FFF7B5FB6B6A33F4802271
:100C1C0019D0B2F5002F16D0B2F5801F13D0B2F553
:100C2C00C01F10D0B2F5001F0DD0B2F5201F0AD096
:100C3C00B2F5401F07D0B3F5601F04D0774840F2DF
:100C4C000321FFF797FB4FF0807393FAA3F3B3FAEA
:100C5C0083F3DBB29B0003F1844303F5840300228E
:100C6C001A60FFF7CBFB07464FF000746C4E05E0A3
:100C7C00FFF7C4FBC01B642800F2C78094FAA4F3EE
:100C8C00B3FA83F343F02003C3F34213012B01D1D6
:100C9C00326804E094FAA4F3B3FA83F3726A94FA18
:100CAC00A4F3B3FA83F303F01F0322FA03F313F054
:100CBC00010FDDD12B6AB3F5803F0FD1AB6833F454
:100CCC00003304D0554840F21921FFF753FB544927
:100CDC004B6823F40032AB6813434B6050494B68AC
:100CEC00686A2A6A024323F4741313434B604FF06F
:100CFC00807393FAA3F3B3FA83F3DBB29B0003F193
:100D0C00844303F5840301221A60FFF777FB064640
:100D1C004FF00074424D04E0FFF770FB801B642819
:100D2C0075D894FAA4F3B3FA83F343F02003C3F316
:100D3C004213012B01D12A6804E094FAA4F3B3FA0C
:100D4C0083F36A6A94FAA4F3B3FA83F303F01F03F0
:100D5C0022FA03F313F0010FDED000205AE04FF01B
:100D6C00807393FAA3F3B3FA83F3DBB29B0003F122
:100D7C00844303F5840300221A60FFF73FFB064609
:100D8C004FF00074264D04E0FFF738FB801B6428FD
:100D9C003FD894FAA4F3B3FA83F343F02003C3F3DC
:100DAC004213012B01D12A6804E094FAA4F3B3FA9C
:100DBC0083F36A6A94FAA4F3B3FA83F303F01F0380
:100DCC0022FA03F313F0010FDED1002022E0012000
:100DDC0020E003201EE003201CE003201AE0012089
:100DEC0018E0032016E0032014E0032012E0032097
:100DFC0010E003200EE003200CE003200AE00320A7
:100E0C0008E0002006E0012004E0032002E00320BB
:100E1C0000E0032002B0BDE8F08100BFF01E000826
:100E2C0000100240F8B50D46044620B99B4840F22C
:100E3C006B21FFF79FFA2368013B0E2B04D99748CF
:100E4C004FF41B71FFF796FA022D04D9934840F228
:100E5C006D21FFF78FFA236813F0020F1DD0A368E2
:100E6C0033F0800212D023F02002902A0ED023F00F
:100E7C004002A02A0AD023F01002C02A06D0F02B80
:100E8C0004D0864840F27621FFF774FA84494B6807
:100E9C0023F0F002A36813434B60236813F0010F97
:100EAC0000F0B2806368022B04D97C4840F27D21AB
:100EBC00FFF760FA6268012A24D14FF4003393FAE9
:100ECC00A3F3B3FA83F343F02003C3F34213012BD0
:100EDC0002D1734B196807E04FF4003393FAA3F374
:100EEC00B3FA83F36E4B596A4FF4003393FAA3F3BE
:100EFC00B3FA83F303F01F0321FA03F313F0010F8A
:100F0C0048D1BFE0022A24D14FF0007393FAA3F327
:100F1C00B3FA83F343F02003C3F34213012B02D142
:100F2C005F4B196807E04FF0007393FAA3F3B3FA21
:100F3C0083F35B4B596A4FF0007393FAA3F3B3FA44
:100F4C0083F303F01F0321FA03F313F0010F21D1F4
:100F5C009AE0022393FAA3F3B3FA83F343F020034A
:100F6C00C3F34213012B02D14D4B196806E0022347
:100F7C0093FAA3F3B3FA83F3494B596A022393FA16
:100F8C00A3F3B3FA83F303F01F0321FA03F313F073
:100F9C00010F7BD042494B6823F003031A434A608C
:100FAC00FFF72CFA05466368012B0FD105E0FFF71C
:100FBC0025FA401BB84203D96AE0394E41F2883712
:100FCC00736803F00C03042BF1D11DE0022B09D044
:100FDC00334E41F2883713E0FFF710FA401BB8424A
:100FEC0003D957E02E4E41F28837736803F00C0397
:100FFC00082BF1D108E0FFF701FA401BB8424BD89F
:10100C00736813F00C0FF6D1236813F0040F17D08C
:10101C00E36833F480620CD023F40072B2F5A06F55
:10102C0007D0B3F5C06F04D01C4840F2C321FFF7C2
:10103C00A1F91B494B6823F4E062E36813434B604E
:10104C00236813F0080F18D0236933F480620CD096
:10105C0023F40072B2F5A06F07D0B3F5C06F04D0C3
:10106C000E4840F2CA21FFF785F90D4A53682169F1
:10107C0023F4605343EAC10353600F20FFF790F948
:10108C000020F8BD0120F8BD0120F8BD0120F8BDFD
:10109C000320F8BD0320F8BD0320F8BDF01E0008A6
:1010AC000010024030B587B00D46144620B11C48E4
:1010BC0040F20231FFF75EF924B1194840F20331D6
:1010CC00FFF758F925F00073B3F1A06F0AD0B5F112
:1010DC00C06F07D035F0806304D011484FF44171D4
:1010EC00FFF748F90F4CA36943F00403A361A3690C
:1010FC0003F004030193019B4FF4807302930223CA
:10110C0003930323059300230493074802A900F0DB
:10111C005FF9616821F0E0612943616007B030BD7F
:10112C00F01E000800100240000801404FF400239C
:10113C0093FAA3F3B3FA83F3DBB29B0003F184437A
:10114C0003F5840301221A60704700BF4FF400239B
:10115C0093FAA3F3B3FA83F3DBB29B0003F184435A
:10116C0003F5840300221A60704700BF30B486B0C8
:10117C001F4D02AC28686968AA68EB680FC42B8AFB
:10118C00ADF804301B4B5A6802F00C03082B2BD122
:10119C004FF4701393FAA3F3B3FA83F302F47011C0
:1011AC00DBB221FA03F306A90B4413F8103C12F43A
:1011BC00803F15D00F4A52684FF4003191FAA1F1DB
:1011CC00B1FA81F102F40032C9B2CA4006A90A444C
:1011DC0012F8140C084AB2FBF0F003FB00F004E028
:1011EC00064800FB03F000E0034806B030BC704733
:1011FC00CC1E00080010024000127A0000093D00CD
:10120C0008B5FFF7B3FF094B5B68F02292FAA2F224
:10121C00B2FA82F203F0F003D2B2D340044A134480
:10122C001B7DD840034B186008BD00BF0010024066
:10123C00CC1E00080400002008B5FFF7E1FF084BA6
:10124C005B684FF4E06292FAA2F2B2FA82F203F413
:10125C00E063D2B2D340034A13441B7DD84008BD8F
:10126C0000100240CC1E000808B5FFF7C9FF084B60
:10127C005B684FF4605292FAA2F2B2FA82F203F473
:10128C006053D2B2D340034A13441B7DD84008BDEF
:10129C0000100240CC1E000810B5044620B92C48A2
:1012AC0040F2A731FFF766F80F232360294B1B6828
:1012BC0013F4802F02D00523636007E0254B1B68D5
:1012CC0013F4803F14BF012300236360214A536849
:1012DC0003F40033A360136813F0010F14BF012350
:1012EC00002323611B490A68F82393FAA3F3B3FA8A
:1012FC0083F302F0F802DBB222FA03F363610B6AA8
:10130C0013F0040F02D00523E36007E0114B1B6AB6
:10131C0013F0010F14BF01230023E3600D4B5B6A34
:10132C0013F0010F14BF01230023A361094B1B68A9
:10133C0013F0807F14BF02230123E361054A536835
:10134C0003F480332362536803F47013636210BD9B
:10135C00F01E00080010024038B50D46044620B9B6
:10136C00104840F2F931FFF705F825B90D4840F265
:10137C00FA31FEF7FFFF0F2323600B4B5A6802F084
:10138C00030262605A6802F0F002A2605A6802F42A
:10139C00E062E2605B6803F46053DB0823610023C6
:1013AC002B6038BDF01E000800100240704700BFD3
:1013BC0008B5054B9B6813F0800F04D0FFF7F6FFC0
:1013CC008022024B1A7008BD001002400A10024025
:1013DC002DE9F04F83B007460E46AA4B984213D026
:1013EC0003F5806398420FD003F5806398420BD0CD
:1013FC0003F58063984207D003F58063984203D0CD
:10140C00A148CF21FEF7B6FF33881BB99E48D021E7
:10141C00FEF7B0FF7368032B17D9A3F11102012A51
:10142C0013D923F4001299498A420ED001F5801188
:10143C008B420AD0A1F570218A4206D0944A93427D
:10144C0003D09148D121FEF795FFB368022B40F2EF
:10145C000C818D48D221FEF78DFF06E10123AB40B4
:10146C0034681C409C4240F0FB80574512D0894B9D
:10147C009F420FD003F580639F420BD003F580632E
:10148C009F4207D003F580639F4203D07E48E02142
:10149C00FEF770FF7368122B4CD00CD8022B3DD08A
:1014AC0004D8002B52D0012B21D062E0032B1BD08F
:1014BC00112B27D05DE0784A934247D008D8A2F58B
:1014CC008012934242D002F58032934251D13DE0DA
:1014DC00724A93423AD002F58032934236D0A2F54A
:1014EC008012934245D131E04FF0000941E0F3689E
:1014FC00013B022B03D96448E821FEF73BFFD6F8E9
:10150C000C9036E0F368013B022B03D95E48EF21C7
:10151C00FEF730FFF36803F104092AE0F368013B9E
:10152C00022B03D95848F621FEF724FFF36803F188
:10153C0008091EE0F368013B022B03D95248FD2138
:10154C00FEF718FFF36803F10C0912E0B368022BE5
:10155C0004D94D484FF48571FEF70CFFB36833B1D5
:10156C00012B0CBF3C617C614FF0080901E04FF08E
:10157C000409FF2C04D839463B68A8001A4605E03C
:10158C00391D7B68A5F1080080001A460F238340A3
:10159C0022EA030309FA00F213430B60736813F099
:1015AC00805F5DD0DBF8183043F00103CBF81830C6
:1015BC00DBF8183003F001030193019B25F00303C2
:1015CC0003F1804303F58033986805F0030E4FEA6E
:1015DC008E0E0F2202FA0EF220EA020157450DD0B0
:1015EC002C4A97420CD002F5806297420AD002F541
:1015FC00806297420CBF0322042204E0002202E026
:10160C00012200E0022202FA0EF20A439A60736889
:10161C0013F4803FD8F8003014BF2343A343C8F819
:10162C000030736813F4003FD8F8043014BF234320
:10163C00A343C8F80430736813F4801FD8F808303B
:10164C0014BF2343A343C8F80830736813F4001F76
:10165C00D8F80C3014BF1C4323EA0404C8F80C401F
:10166C000135102D7FF4FAAE09E04FF000094D461C
:10167C00DFF810A0DFF828B0DFF82880EEE603B022
:10168C00BDE8F08F00080140601F00080000111039
:10169C0000002210000C014000002110000031104D
:1016AC0000100240000401402DE9F04F83B00446C5
:1016BC000D46494B984214D003F58063984210D0E4
:1016CC0003F5806398420CD003F58063984208D0F0
:1016DC0003F58063984204D0404840F27911FEF73C
:1016EC0049FEABB223B93D484FF4BD71FEF742FE43
:1016FC00002D6DD000224FF001084FF00F094FF074
:10170C00040BDFF8D4A0DFF8DCC008FA02F32B409E
:10171C005AD0FF2B03D826462168900004E0261DE2
:10172C006168A2F10800800009FA00F721EA0701BC
:10173C000BFA00F001433160E168DE433140E160B7
:10174C0022F0030303F1804303F58033986802F021
:10175C000301890009FA01F73840019054450FD074
:10176C001F4884420FD000F5806084420DD000F5F4
:10177C00806084420CBF4FF0030E4FF0040E06E065
:10178C004FF0000E03E0C64601E04FF0020E0EFAD9
:10179C0001F10198814217D1996821EA07079F60EE
:1017AC00DCF800303340CCF80030DCF80430334047
:1017BC00CCF80430DCF808303340CCF80830DCF8D6
:1017CC000C303340CCF80C30013235FA02F39CD19A
:1017DC0003B0BDE8F08F00BF00080140601F000897
:1017EC00000C01400004014038B505460C4621B9F7
:1017FC00054840F2C511FEF7BDFDAB681C4214BF95
:10180C000120002038BD00BF601F000870B50646DF
:10181C0015460C4621B9094840F2E511FEF7AAFD20
:10182C00012D04D905484FF4F371FEF7A3FD0DB15A
:10183C00346170BD2404346170BD00BF601F0008AA
:10184C0038B504460D4621B9044840F2FB11FEF7A9
:10185C0091FDE1686940E16038BD00BF601F000880
:10186C0030B583B004460D464FF48033019303F139
:10187C00804303F50063984214D003F580639842CB
:10188C0010D003F5806398420CD003F58063984226
:10189C0008D003F58063984204D00E4840F20F2123
:1018AC00FEF768FD25B90B484FF40471FEF762FD95
:1018BC00019B2B430193019BA361A561019BA36138
:1018CC00A3690193A06980F48030C0F3004003B099
:1018DC0030BD00BF601F0008704700BF08B5044B47
:1018EC005B69184203D0024B5861FFF7F5FF08BD46
:1018FC000004014010B50446C31E042B03D90A484A
:10190C00BB21FEF737FD094AD36823F4E0631B04BF
:10191C001B0C43F0BF6343F4003304F0070443EAA9
:10192C000423D36010BD00BFD01F000800ED00E001
:10193C0070B505460C4616460F2A03D91948D32113
:10194C00FEF718FD0F2C03D91648D421FEF712FD13
:10195C00154BDB68C3F30223C3F10702042A28BF2B
:10196C000422191D06298CBF033B0023012101FA17
:10197C0003F001380640914001390C409C4034433F
:10198C00002D06DA05F00F052401E4B2074B5C5577
:10199C0070BD2401E4B205F1604505F5614585F89B
:1019AC00004370BDD01F000800ED00E014ED00E016
:1019BC0010B5041E03DA0648E721FEF7DBFC6109CB
:1019CC0004F01F040123A340024A42F8213010BD49
:1019DC00D01F000800E100E010B5041E03DA074830
:1019EC00F721FEF7C7FC630904F01F040122A24093
:1019FC002033034941F8232010BD00BFD01F00083D
:101A0C0000E100E0BFF34F8F0449CA6802F4E062C2
:101A1C00034B1343CB60BFF34F8FFEE700ED00E0A9
:101A2C000400FA050138B0F1807F0AD2064B5860E9
:101A3C00F021064A82F823100020986007221A60D1
:101A4C0070470120704700BF10E000E000ED00E09F
:101A5C00024BD868C0F30220704700BF00ED00E0D5
:101A6C00F8B506460C4617461D46CB1E042B04D96A
:101A7C00164840F24911FEF77DFC002E05DA06F0FF
:101A8C000F06134B9B5D1B0906E006F1604606F53D
:101A9C00614696F800331B0904F00701C1F10704F5
:101AAC00042C28BF04240A1D062A8CBF03390021EC
:101ABC0023FA01F6012202FA04F0013830403860B2
:101ACC008A40013A1A402A60F8BD00BFD01F0008B6
:101ADC0014ED00E0430900F01F0001228240403366
:101AEC00014941F82320704700E100E043094033ED
:101AFC00054A52F8232000F01F00012383401342B3
:101B0C0014BF01200020704700E100E0430900F001
:101B1C001F00012282406033014941F823207047A5
:101B2C0000E100E043098033054A52F8232000F01D
:101B3C001F0001238340134214BF01200020704773
:101B4C0000E100E008B504280BD020B108484FF4A0
:101B5C00C871FEF70FFC074A136823F004031360E7
:101B6C0008BD044A136843F00403136008BD00BFAA
:101B7C00D01F000810E000E0704700BF08B5FFF769
:101B8C00FBFF08BD002103E00B4B5B5843500431B5
:101B9C000A480B4B42189A42F6D30A4A02E0002339
:101BAC0042F8043B084B9A42F9D3FEF71BFB00F0BA
:101BBC001FF8FEF7AFFB7047602000080000002004
:101BCC00440400204804002078040020FEE70000B4
:101BDC0008B50021044600F08BF8044B1868C36B61
:101BEC0003B19847204600F05BF900BF482000087D
:101BFC0070B50F4E0F4D761BB61018BF002405D0D4
:101C0C00013455F8043B9847A642F9D10A4E0B4DC6
:101C1C0000F04AF9761BB61018BF002406D0013428
:101C2C0055F8043B9847A642F9D170BD70BD00BF72
:101C3C0054200008542000085C20000854200008A0
:101C4C0070B4840746D0541E002A41D0CDB203464E
:101C5C0002E0621EE4B3144603F8015B9A07F8D164
:101C6C00032C2ED9CDB245EA05250F2C45EA0545A6
:101C7C0019D9264603F11002103E0F2E42F8105CC3
:101C8C0042F80C5C42F8085C42F8045C02F1100269
:101C9C00F2D8A4F1100222F00F0204F00F0410325B
:101CAC00032C13440DD91E462246043A032A46F847
:101CBC00045BFAD8221F22F003020432134404F00E
:101CCC0003042CB1C9B21C4403F8011BA342FBD181
:101CDC0070BC704714460346C2E700BF024B13B1F9
:101CEC00024800F06FB8704700000000DD1D0008CE
:101CFC002DE9F04F81460E46304B83B01B680093A4
:101D0C0003F5A4730193009BD3F8487127B3DDF856
:101D1C0004A07C68651E0ED4013407EB84044FF0DC
:101D2C000008E6B1D4F80031B34218D0013D6B1C69
:101D3C00A4F10404F5D1224B73B17B68002B36D18E
:101D4C003B68002B34D03846CAF80030AFF3008023
:101D5C00DAF80070002FDCD103B0BDE8F08F7B689F
:101D6C002268013BAB420CBF7D60C4F80080002AA6
:101D7C00DCD0D7F888310121A9401942D7F804B03A
:101D8C0008D190477B685B45BDD1DAF80030BB4287
:101D9C00CCD0B8E7D7F88C31194204D14846D4F8E6
:101DAC0080109047EEE7D4F880009047EAE73B6854
:101DBC00BA461F46002FACD1CEE700BF4820000822
:101DCC0000000000014600200246034600F016B851
:101DDC0038B5084B084DED1AAC1018BFED1805D0EE
:101DEC00013C55F8043D9847002CF9D1BDE838402A
:101DFC0000F060B85C200008602000082DE9F04776
:101E0C00254C064625688846D5F8484192469946A1
:101E1C00C4B360681F2817DC411C76B104EB800347
:101E2C00C3F888A0D4F88851012282401543022EB1
:101E3C00C4F88851C3F808911ED0831C616000203F
:101E4C0044F82380BDE8F087144B03B34FF4C870FB
:101E5C00AFF300800446D0B1D5F84831002784E8B0
:101E6C0088003846C5F848410121C4F88871C4F887
:101E7C008C71002EE1D0D1E7D4F88C311A43C4F820
:101E8C008C21DAE705F5A674C5F84841C1E74FF097
:101E9C00FF30BDE8F08700BF4820000800000000BC
:101EAC00FEE700BF00000000F8B500BFF8BC08BC9E
:101EBC009E467047F8B500BFF8BC08BC9E467047FC
:101ECC0002030405060708090A0B0C0D0E0F10106F
:101EDC0001020000000000000102030401020304DF
:101EEC00060708092F686F6D652F68746C752F577E
:101EFC006F726B732F61726D2F6C69622F53544D1F
:101F0C003332437562652F53544D333243756265DA
:101F1C005F46575F46315F56312E302E302F44725C
:101F2C0069766572732F53544D3332463178785F2E
:101F3C0048414C5F4472697665722F5372632F73FC
:101F4C00746D3332663178785F68616C5F7263638D
:101F5C002E6300002F686F6D652F68746C752F579A
:101F6C006F726B732F61726D2F6C69622F53544DAE
:101F7C003332437562652F53544D3332437562656A
:101F8C005F46575F46315F56312E302E302F4472EC
:101F9C0069766572732F53544D3332463178785FBE
:101FAC0048414C5F4472697665722F5372632F738C
:101FBC00746D3332663178785F68616C5F67706915
:101FCC006F2E63002F686F6D652F68746C752F57BB
:101FDC006F726B732F61726D2F6C69622F53544D3E
:101FEC003332437562652F53544D333243756265FA
:101FFC005F46575F46315F56312E302E302F44727C
:10200C0069766572732F53544D3332463178785F4D
:10201C0048414C5F4472697665722F5372632F731B
:10202C00746D3332663178785F68616C5F636F72A0
:10203C007465782E63000000430000001800002037
:08204C001CE1FF7F0100000010
:08205400E91C0008310100083D
:04205C000D0100086A
:102060000000000000A24A04000000000000000080
:102070000102030406070809000000000403002011
:102080006C030020D40300200000000000000000CA
:102090000000000000000000000000000000000040
:1020A00000000000000000000000000044200008C4
:1020B0000000000000000000000000000000000020
:1020C0000000000000000000000000000000000010
:1020D0000000000000000000000000000000000000
:1020E00000000000000000000000000000000000F0
:1020F00000000000000000000000000000000000E0
:1021000000000000000000000000000000000000CF
:1021100000000000000000000000000000000000BF
:1021200001000000000000000E33CDAB34126DE65C
:10213000ECDE05000B0000000000000000000000C5
:10214000000000000000000000000000000000008F
:10215000000000000000000000000000000000007F
:10216000000000000000000000000000000000006F
:10217000000000000000000000000000000000005F
:0424A0001800002000
:0424A4000000000034
:0400000508001B9143
:00000001FF
