:020000040800F2
:100000004804002001010008C70400084502000858
:10001000C504000849010008770900080000000035
:1000200000000000000000000000000009060008B9
:100030004B0100080000000041050008B50600085B
:100040001B0100081B0100081B0100081B01000820
:100050001B0100081B0100081B0100081B01000810
:100060001B0100081B0100081B0100081B01000800
:100070001B0100081B0100081B0100081B010008F0
:100080001B0100081B0100081B0100081B010008E0
:100090001B0100081B0100081B0100081B010008D0
:1000A0001B0100081B0100081B0100081B010008C0
:1000B0001B010008F10700081B0100081B010008D4
:1000C0001B0100081B0100081B0100081B010008A0
:1000D0001B0100081B0100081B0100081B01000890
:1000E0001B0100081B0100081B010008DFF80CD0F1
:1000F00000F018F80048004799090008480400205B
:100100000648804706480047FEE7FEE7FEE7FEE7B1
:10011000FEE7FEE7FEE7FEE7FEE7FEE7B9060008BA
:10012000ED000008064C074D06E0E06840F00103D2
:1001300094E8070098471034AC42F6D3FFF7DAFF93
:10014000A8090008C8090008FEE77047F0B5CA789A
:10015000002502F00F03D20601D58A7813430C78EC
:100160004FF00F0E0122ECB1D0F800400F8802FAD8
:1001700005F63740B74211D14FEA850C0EFA0CF75D
:1001800024EA070703FA0CF43C43CF78282F02D067
:10019000482F02D002E0466100E006616D1C082D88
:1001A000E4D304600C88FF2C1ED944685FF000067D
:1001B00006F1080702FA07F50F882F40AF420FD16A
:1001C0004FEA860C0EFA0CF7BC4303FA0CF73C43DB
:1001D000CF78282F00D14561CF78482F00D1056115
:1001E000761C082EE4D34460F0BD0000F0B5144C3A
:1001F000002801DAE36900E06368420D120185B26C
:10020000C0F301579540C0F30346032F05D0C20247
:100210000AD50322B240934307E023F0706263687B
:1002200023F07063636002E0AB4343F0706201B19E
:100230002A43002801DAE261F0BD6260F0BD0000EF
:1002400000000140FEE70000F0B5234C4FF0010C28
:10025000A4F124036278012A10D0022A0DD19A89D0
:10026000904235D3DA89904232D8188A81422FD30E
:10027000588A81422CD884F801C0F0BD5D880022E4
:10028000A8421AD39D88A84217D85E891889DD88AC
:1002900016EB000705FB026EAEEB000E8E4512D882
:1002A00005FB027E8E450ED3FF2A06D06068104300
:1002B000400060602078401C207020780B28DCD142
:1002C00083F800C0F0BD521CD2B2022AE2D3F4E798
:1002D000BDE8F04000F0ECB8280000200A4A117890
:1002E00000290FD002F124014B6893FAA3F34B606D
:1002F000C3F3065303704968C90E417000201070A3
:1003000000F0D6B8704700000400002070B58AB035
:100310000121022000F016F90121112000F01EF940
:100320004020ADF8100004208DF8130003208DF854
:10033000120004A95948FFF709FF01215848FFF7A7
:1003400055FF4FF4A06000F0F1F81D208DF80C006F
:1003500001258DF80D5000248DF80E408DF80F50BA
:1003600003A800F0B1F84F4E01221721304600F0EB
:10037000CBFAADF800400220ADF80200ADF8045011
:10038000ADF80640ADF808406946304600F086FA00
:1003900005A800F0EFF844484068C0F30221079830
:1003A0001822042900D34000B0FBF2F04FF47A7514
:1003B000B0FBF5F03D4CA0615021304600F0A7FAAB
:1003C0000421304600F0B1FA8021304600F0A5FA51
:1003D0000121304600F0C5FAA069A9004843B0FBEE
:1003E000F5F13048A1822C3001800121304600F027
:1003F00035FA01221146304600F048FA0122042164
:10040000304600F043FA01220221304600F03EFA65
:100410000121304600F025FAA06940F6FC0148436E
:10042000B0FBF5F0A081A06940F6C4114843B0FBD1
:10043000F5F0E081A06940F686314843B0FBF5F065
:100440002082A06940F6EA314843B0FBF5F06082B3
:10045000A06940F2E2414843B0FBF5F0A080A069FA
:1004600040F226214843B0FBF5F06080A0694FF4CC
:1004700016714843B0FBF5F0E080A0696421484361
:10048000B0FBF5F02081A0694FF496614843B0FBC2
:10049000F5F0608100F00CF80AB070BD001001406A
:1004A000000C1A000004004000100240040000206C
:1004B0000348002102220170427041607047000031
:1004C00028000020FEE77047F0B50F21C4780278BD
:1004D00001234FF0E026DCB1124C2468457804F487
:1004E000E064C4F5E064240AC4F10407E1408478C0
:1004F000BD400C402C4321010B4C1155007800F0FD
:100500001F018B40400906EB8000C0F80031F0BDB0
:1005100002F01F008340500906EB8000C0F88031D4
:10052000F0BD00000CED00E000E400E002490843EB
:1005300002490860704700000000FA050CED00E079
:1005400070470000044A0029D16901D0014300E04E
:100550008143D1617047000000100240044A002925
:10056000916901D0014300E081439161704700002F
:100570000010024030B520494A6812F00C031F4AAF
:1005800003D0042B01D0082B22D002604A680F232D
:100590001B4C03EA1212A35C0268DA4042604B680B
:1005A000072505EA1323E35C22FA03F383604B6813
:1005B00005EAD323E35C22FA03F2C260496803230D
:1005C00003EA9131231F595CB2FBF1F1016130BDA7
:1005D0004A684B6802F470124FF0020413F4803F33
:1005E00004EB924202D04B689B0301D5054B00E01F
:1005F000024B5A43C9E700000010024000127A0083
:100600003400002000093D00704700000CB50021B7
:10061000264801910091026842F4803202604FF452
:10062000A063026802F400320092019A521C019207
:10063000009A12B9019A9A42F3D10268920333D513
:10064000012100911A490A6842F010020A600A6802
:1006500022F003020A600A6842F002020A6041685E
:10066000416041684160416841F480614160416896
:1006700021F47C114160416841F4E8114160016856
:1006800041F08071016001688901FCD5416821F069
:1006900003014160416841F0020141604168C1F3DA
:1006A00081010229FAD10CBD00910CBD001002405D
:1006B00000200240704700000F4810B5016841F06B
:1006C0000101016041680D4A1140416001680C4A16
:1006D00011400160016821F480210160416821F42A
:1006E000FE0141604FF41F018160FFF78FFF054954
:1006F0004FF00060086010BD001002400000FFF8DD
:10070000FFFFF6FE08ED00E070B5048C24F0010454
:100710000484058B048C4FF6FF7606EA031313431B
:1007200025F0F3050E4A2B4390420ED00D4A90421D
:100730000BD0B0F1804F08D00B4A904205D00B4A45
:10074000904202D00A4A904202D124F0020201E013
:1007500024F00A020A4342F001010383018470BDC0
:10076000002C01400034014000040040000800401B
:10077000000C0040F0B5048C24F010040484078BB6
:10078000048C4FF6FF7527F4734705EA03333B43A8
:1007900005EA02221A43114B05EA011698420ED0CF
:1007A0000F4B98420BD0B0F1804F08D00D4B9842C0
:1007B00005D00D4B984202D00C4B984205D124F045
:1007C0002001314341F0100104E024F0A0030B4369
:1007D00043F0100102830184F0BD0000002C0140B1
:1007E000003401400004004000080040000C0040BC
:1007F00070B5184C0221204600F041F8164D68B142
:100800000221204600F02AF8204600F034F8014684
:100810002862E869BDE87040FFF716BD0421204654
:1008200000F02DF840B10421204600F017F82046D2
:1008300000F023F8E86170BD0121204600F01FF8A8
:100840000028F8D00121204600F008F8BDE87040EB
:10085000FFF72EBE0004004004000020C9430182BF
:1008600070470029018802D041F0010101E021F028
:10087000010101807047808E7047008F70470246EB
:100880000020128A0A4200D001207047002A828983
:1008900001D00A4300E08A43828170472DE9F0418C
:1008A0000C46002649880746012501B90226A28880
:1008B000012A00D10225208823890028384611D03A
:1008C000FFF758FFE188384600F03FF823892A46B1
:1008D00031463846FFF718FFE1883846BDE8F04159
:1008E00000F02BB8FFF710FFE188384600F025F83C
:1008F00023892A4631463846FFF73CFFE1883846CF
:10090000BDE8F04100F021B801858282704702897C
:1009100022F070020A4302817047028922F08002AD
:10092000028102890A4302817047028922F007028C
:10093000028102890A4302817047028B22F00C0275
:100940000283028B0A4302837047028B22F44062C7
:100950000283028B4FF6FF7303EA01210A430283ED
:1009600070470029018802D041F0040101E021F024
:10097000040101807047FEE702E008C8121F08C1A9
:10098000002AFAD170477047002001E001C1121F10
:10099000002AFBD170470000FFF7B8FC0148FFF7C1
:1009A0009DFCFBE700000020C809000800000020B3
:1009B00044000000780900080C0A000844000020E8
:1009C0000404000088090008000000000000000086
:1009D0000000000000000000000000000000000017
:1009E0000000000000000000000000000000000007
:1009F00000000000000000000204060800000000E3
:0C0A0000010203040102030406070809B8
:04000005080000ED02
:00000001FF
