:020000040800F2
:1000000000000220912B0008CD030008D103000856
:10001000D5030008D9030008DD0300080000000034
:10002000000000000000000000000000E1030008E4
:10003000E503000800000000E90300088913000838
:10004000D92B0008D92B0008D92B0008D92B000880
:10005000D92B0008D92B0008D92B0008D92B000870
:10006000D92B0008D92B0008D92B0008D92B000860
:10007000D92B0008D92B0008D92B0008D92B000850
:10008000D92B0008D92B0008D92B0008D92B000840
:10009000D92B0008D92B0008D92B0008D92B000830
:1000A000D92B0008D92B0008D92B0008D92B000820
:1000B000D92B0008D92B0008D92B0008D92B000810
:1000C000D92B0008D92B0008D92B0008D92B000800
:1000D000D92B0008152A00083D2A0008652A0008C7
:1000E000D92B0008D92B0008D92B0008D92B0008E0
:1000F000D92B0008D92B0008D92B0008D92B0008D0
:10010000D92B0008D92B0008D92B0008D92B0008BF
:100110008D2A0008B52A0008D92B0008D92B000821
:10012000D92B0008D92B0008D92B0008D92B00089F
:10013000D92B0008D92B0008D92B0008D92B00088F
:10014000D92B0008D92B0008D92B0008D92B00087F
:10015000D92B0008D92B0008D92B0008DD2A00086C
:10016000D92B0008D92B0008D92B0008D92B00085F
:10017000D92B0008D92B0008D92B0008D92B00084F
:08018000D92B0008D92B00085F
:1001880010B5054C237833B9044B13B10448AFF3C9
:1001980000800123237010BDB0040020000000007F
:1001A800B42E0008084B10B51BB108480849AFF336
:1001B80000800848036803B910BD074B002BFBD02B
:1001C800BDE81040184700BF00000000B42E00082A
:1001D800B4040020AC04002000000000154B002BE4
:1001E80008BF134B9D46A3F5803A00218B460F4666
:1001F8001348144A121A02F025FD0F4B002B00D0A9
:1002080098470E4B002B00D098470020002104008F
:100218000D000D48002802D00C4802F0D5FD02F070
:10022800E9FC2000290002F073FC02F0D3FC00BFB7
:1002380000000800000000000000000000000000AE
:10024800B0040020F0050020D12D0008DD2D0008A5
:1002580039493A4BD1F88820394842F47002C1F83C
:1002680088201A68002142F001021A6099601A6811
:1002780022F0847222F480321A6058601A6882B0C0
:1002880022F480221A60D960009101911A6842F420
:1002980080321A601A4603E0009BB3F5A06F09D0BC
:1002A800136803F400330193009B01330093019B0F
:1002B800002BF1D0214B1B6813F4003318BF012326
:1002C8000193019B012B05D01B4B4FF000629A60F4
:1002D80002B07047194B1B491A6C1B4842F08052F8
:1002E8001A640A6842F480420A609A689A609A68B6
:1002F80042F400429A609A6842F4A0529A605860A8
:100308001A6842F080721A601A4611680B4B89010C
:10031800FBD50E4A40F2057111609A6822F003027B
:100328009A609A6842F002029A601A46936803F04B
:100338000C03082BFAD1C7E700ED00E000380240B3
:10034800103000240070004008544007003C024070
:100358001848836803F00C03042B28D0082B09D015
:10036800154B144A15499268C2F303128A5CD340AC
:100378000B6170474368416813F4800F436818BFE6
:100388000F4801F03F020CBF0B49B0FBF2F1C3F379
:10039800881308BFB1FBF2F101FB03F2054B5B6860
:1003A800C3F3014301335B00B2FBF3F3D9E7044B1A
:1003B800D7E700BF003802400024F40014000020F2
:1003C80040787D01704700BFFEE700BFFEE700BF31
:1003D800FEE700BFFEE700BF704700BF704700BFE1
:1003E800704700BF40F0BF60024B40F40030D86057
:1003F800704700BF00ED00E0C3785BB90378184888
:100408005A09203203F01F03012101FA03F340F8CF
:1004180022307047134BF0B4D96845788278047855
:100428000F4EC943C1F30221C1F10407FFB20F23E4
:10043800BD400B411340E9B20B4304F1604202F5A1
:1004480061421B01DBB282F800330378012203F01A
:100458001F015B098A4046F82320F0BC704700BFA3
:1004680000E100E000ED00E021F0604121F07F01B3
:10047800014B08439860704700ED00E0044A136997
:1004880019B923EA000010617047184310617047DA
:1004980000ED00E0044A136804280CBF43F004038D
:1004A80023F004031360704710E000E00A4B0B4888
:1004B8001A68002142F001021A6099601A6822F055
:1004C800847222F480321A6058601A6822F48022FA
:1004D8001A60D960704700BF00380240103000240D
:1004E800024B00221A701870704700BF0238024091
:1004F80082B000230A4A019302E0B3F5A06F08D046
:10050800136813F4003F019B03F101030193019B5E
:10051800F3D0034B1868C0F3404002B0704700BFE7
:1005280000380240034A136823F0F80343EAC00086
:100538001060704700380240014B1860704700BFD8
:1005480000004742064B002201281A701A7005D095
:10055800042802D105221A70704770471870704736
:1005680070380240014B1860704700BF800E474248
:1005780030B4029C064D40EA046001435B08013B2D
:1005880041EA821242EA0340686030BC704700BF0B
:1005980000380240014B1860704700BF60004742B6
:1005A8000907034B41EA8010C3F88400704700BF75
:1005B80000380240014B1860704700BF680047428E
:1005C800014B1860704700BF4C004742034A9368CC
:1005D80023F0EC63194308439060704700380240E9
:1005E800034A936823F0784319430843906070479F
:1005F80000380240034A936823F0030318439060CD
:10060800704700BF00380240024B986800F00C00A9
:10061800704700BF00380240034A936823F0F00394
:1006280018439060704700BF00380240034A93683F
:1006380023F4E05318439060704700BF003802402D
:10064800034A936823F4604343EAC000906070470C
:100658000038024010B4214CA36803F00C03042BAB
:100668001BD0082B1CD01E4B03601C4A1D499468E4
:10067800C4F303140C5DE34043609468C4F382241C
:100688000C5D23FA04F4846092685DF8044BC2F3AD
:1006980042328A5CD340C3607047134B0360E4E77F
:1006A8006368616813F4800F636818BF0E4C01F02B
:1006B8003F020CBF0A49B4FBF2F1C3F3881308BF29
:1006C800B1FBF2F101FB03F2044B5B68C3F3014396
:1006D80001335B00B2FBF3F30360C6E70038024066
:1006E8000024F4002800002040787D0100F44073C5
:1006F800B3F5407F09D108498B6820F0704223F494
:10070800F81322F4407213438B60034A136FC0F34B
:100718000B0018431067704700380240014B1860FF
:10072800704700BF3C0E4742014B1860704700BF3E
:10073800400E4742014B1860704700BF5C014742BA
:10074800044A136B19B923EA000010637047184371
:100758001063704700380240044A536B19B923EA02
:1007680000005063704718435063704700380240D8
:10077800044A936B19B923EA000090637047184341
:100788009063704700380240044A136C19B923EA91
:100798000000106470471843106470470038024026
:1007A800044A536C19B923EA00005064704718438F
:1007B8005064704700380240044A136919B923EAA3
:1007C80000001061704718431061704700380240FC
:1007D800044A536919B923EA000050617047184365
:1007E8005061704700380240044A936919B923EAF6
:1007F80000009061704718439061704700380240CC
:10080800044A136A19B923EA0000106270471843B2
:100818001062704700380240044A536A19B923EA43
:100828000000506270471843506270470038024019
:10083800044A136D19B923EA00001065704718437C
:100848001065704700380240044A536D19B923EA0D
:1008580000005065704718435065704700380240E3
:10086800044A936D19B923EA00009065704718434C
:100878009065704700380240044A136E19B923EA9C
:100888000000106670471843106670470038024031
:10089800044A536E19B923EA00005066704718439A
:1008A8005066704700380240044A137819B923EAA1
:1008B8000000107070471843107070470D380240E0
:1008C8004309012B0BD0022B094B0CBF1A6F5A6F2F
:1008D80000F01F0322FA03F000F001007047044BF8
:1008E8001A6800F01F0322FA03F000F001007047B5
:1008F80000380240024A536F43F0807353677047D1
:1009080000380240034BDB68184214BF0120002066
:10091800704700BF00380240014B1870704700BF95
:100928000E38024008B53C4B984224D03B4B9842C5
:100938002BD03B4B984232D03A4B984239D03A4B65
:10094800984240D0394B984247D0394B98424ED0C4
:10095800384B984255D0384B984200D008BD4FF4D8
:1009680080700121FFF728FF4FF480700021BDE857
:100978000840FFF721BF01200146FFF71DFF0120B6
:100988000021BDE80840FFF717BF02200121FFF74B
:1009980013FF02200021BDE80840FFF70DBF042027
:1009A8000121FFF709FF04200021BDE80840FFF7F7
:1009B80003BF08200121FFF7FFFE08200021BDE842
:1009C8000840FFF7F9BE10200121FFF7F5FE1020BF
:1009D8000021BDE80840FFF7EFBE20200121FFF706
:1009E800EBFE20200021BDE80840FFF7E5BE4020CF
:1009F8000121FFF7E1FE40200021BDE80840FFF794
:100A0800DBBE80200121FFF7D7FE80200021BDE852
:100A18000840FFF7D1BE00BF0000024000040240BA
:100A280000080240000C024000100240001402407E
:100A380000180240001C02400020024000222DE95C
:100A4800F0431346D1F800E001274FF0030C04E00F
:100A58000133102B02F1020228D007FA03F404EA4A
:100A68000E05A542F4D1D0F800800E790CFA02F4F4
:100A7800E44304EA0808C0F80080D0F8008006FAC9
:100A880002F9013E49EA0808012EC0F800800FD992
:100A9800C568CE792C40C460C56806FA02F40133F3
:100AA8002C43102BC46002F10202D6D1BDE8F083BA
:100AB800D0F8089091F805808E7904EA0909C0F801
:100AC8000890D0F8089008FA02F848EA0908C0F82F
:100AD8000880D0F8048028EA05054560D0F804802D
:100AE80006FA03F5ADB245EA08054560D0E700BF50
:100AF80000234FF6FF720260037143718371C37163
:100B0800704700BF82B04FF480330193019B0B43C1
:100B18000193019BC361C161019BC361C3690193D7
:100B2800C369019302B070470369194214BF0120D9
:100B380000207047006980B2704700BF43691942BE
:100B480014BF012000207047406980B2704700BF81
:100B580001837047418370470AB941837047018315
:100B6800704700BF41617047436959404161704710
:100B7800CB0800EB830001F0070110B48900046A78
:100B88000F238B4024EA03030362036A5DF8044BD6
:100B98008A4013430362704708B5174B984212D036
:100BA800164B98421BD0164B984200D008BD4FF404
:100BB80000400121FFF724FE4FF400400021BDE86A
:100BC8000840FFF71DBE4FF480500121FFF724FEB7
:100BD8004FF480500021BDE80840FFF71DBE4FF4D8
:100BE80080400121FFF70CFE4FF480400021BDE852
:100BF8000840FFF705BE00BF003001400038004044
:100C0800003C00402DE9F0410B88B1F80280B1F8B2
:100C180004C0CA88B1F808E04F898E89CC89058854
:100C2800098A48EA030343EA0C03134343EA0E0321
:100C38003B43334343EA040205F4415313439BB255
:100C48000380838B23F400631B041B0C83830182C2
:100C5800BDE8F081828B8B6822F47B6222F00F0260
:100C680012042DE9F043120C022482830484B0F8A4
:100C78001CE0A3421FFA8EFE51D02F4A8F88946839
:100C8800002F14BF4FF0020C4FF0010C240241D486
:100C9800294ACE88D2F88450D2F884405268DFF8C6
:100CA800A080C5F38815B6F5007F02F03F09C4F3AC
:100CB8000272B8FBF9F405FB04F4B4FBF2F431D08A
:100CC8004FEA4C12B4FBF2F202EB82025200B2FB82
:100CD800F3F305339AB2194BA3FB0223DB085A0836
:100CE800941E03F00103FD2C94BF42EA0323022360
:100CF8000C884A8889894EEA040E4EF4006E4EEA42
:100D080002020A43334392B29BB217430384878398
:100D1800BDE8F083946824F400049460B8E78F88F1
:100D2800CE88E5E7240A04EB84046400B4FBF3F3FB
:100D380005339AB2CFE700BF00380240CDCCCCCC07
:100D480040787D010023072202820380438083804C
:100D5800C380038143818381C381704700230222BA
:100D68008260038043808380C3808381704700BF93
:100D7800038829B923F040031B041B0C0380704728
:100D88009BB243F040030380704700BF838B29B9AF
:100D980023F480631B041B0C838370479BB243F4CA
:100DA80080638383704700BF038823F400631B04B8
:100DB8001B0C038003889BB219430180704700BF56
:100DC800B1F5804F038805D023F480431B041B0C26
:100DD800038070479BB243F480430380704700BF91
:100DE8004FF6FF639942038804D09BB243F48073A3
:100DF8000380704723F480731B041B0C0380704727
:100E0800838829B923F004031B041B0C83807047D3
:100E18009BB243F004038380704700BF838829B9DD
:100E280023F010031B041B0C838070479BB243F014
:100E380010038380704700BF838B23F47B6323F008
:100E48000F031B0402221B0C83830284838B8A8971
:100E580070B44D880C888E889BB22B4324F40071A3
:100E680043F40063334389B2134300299BB20CBF98
:100E78004FF4807200221343838370BC704700BF15
:100E8800808980B2704700BF81817047038829B983
:100E980023F400531B041B0C038070479BB243F4DC
:100EA80000530380704700BF03889BB243F480530C
:100EB80003807047012914BF008B808A80B2704775
:100EC800008A80B2704700BF83889BB21AB923EAB0
:100ED8000101818070471943818070470909012306
:100EE8008B409BB22AB9828892B222EA030383809C
:100EF8007047828892B213438380704703891942EE
:100F080014BF012000207047C94389B2018170478E
:100F180010B484880389012201F00F009BB202FA01
:100F280000F01840A4B205D009098A40144214BF41
:100F3800012000205DF8044B704700BF01F00F014D
:100F480001238B40DB439BB20381704708B52B4BD1
:100F5800984219D02A4B984220D02A4B984229D03F
:100F6800294B984232D0294B98423BD0284B984283
:100F780000D008BD20200121FFF74EFC20200021D1
:100F8800BDE80840FFF748BC10200121FFF744FCEA
:100F980010200021BDE80840FFF73EBC4FF40030A8
:100FA8000121FFF72DFC4FF400300021BDE8084077
:100FB800FFF726BC4FF480200121FFF721FC4FF4F6
:100FC80080200021BDE80840FFF71ABC4FF400203C
:100FD8000121FFF715FC4FF400200021BDE808406F
:100FE800FFF70EBC4FF480100121FFF709FC4FF406
:100FF80080100021BDE80840FFF702BC0010014046
:101008000044004000480040004C004000500040B0
:1010180000140140028A8B88F0B592B2CE880F89FD
:1010280004460D4622F440523243A8894989228257
:10103800A2893B4392B20B4322F4B05222F00C0235
:101048009BB21343A381A38A9BB223F44073034347
:1010580085B0A3826846FFF7FDFA1D4B9C4229D054
:1010680003F580639C4225D0029AA389A6891BB206
:10107800002B2B6802EB8202B4BF5B009B0002EBE3
:101088008202B2FBF3F0134A36B2A2FB00356D09B7
:101098006423002E05FB13034FEA05150CDB1B0127
:1010A8003233A2FB0323C3F343132B439BB22381A5
:1010B80005B0F0BD039AD8E7D9003231A2FB01315F
:1010C800C1F3421242EA05039BB2238105B0F0BD89
:1010D800001001401F85EB5100234FF416510C22DC
:1010E800016042818380C38003818381704700BF90
:1010F80030B40A884D888C88038AC9882A432243D9
:101108000A439BB292B223F470631343038230BC48
:10111800704700BF0023038043808380C3807047EB
:10112800838929B923F400531B041B0C838170475E
:101138009BB243F400538381704700BF038B03F4D1
:101148007F430383038B9BB219430183704700BF1E
:10115800838919B9C3F30E03838170476FEA434348
:101168006FEA53439BB28381704700BF838A29B9D2
:1011780023F400631B041B0C838270479BB243F467
:1011880000638382704700BFC1F308018180704704
:101198008088C0F308007047038A23F00F031B04FC
:1011A8001B0C0382038A9BB219430182704700BF5C
:1011B800838929B923F002031B041B0C8381704720
:1011C8009BB243F002038381704700BF838923F4F5
:1011D80000631B041B0C838183899BB219438181A3
:1011E800704700BF038A23F020031B041B0C0382F3
:1011F800038A9BB219430182704700BF038A29B949
:1012080023F480431B041B0C038270479BB243F4F6
:1012180080430382704700BF83899BB243F0010378
:1012280083817047838A29B923F008031B041B0CA8
:10123800838270479BB243F008038382704700BFE4
:10124800038BDBB20383038B9BB243EA0121018347
:10125800704700BF838A29B923F020031B041B0CA5
:10126800838270479BB243F020038382704700BF9C
:10127800838A29B923F010031B041B0C838270474F
:101288009BB243F010038382704700BF838A23F028
:1012980004031B041B0C8382838A9BB2194381823B
:1012A800704700BF838A29B923F002031B041B0C73
:1012B800838270479BB243F002038382704700BF6A
:1012C800838A9BB21AB923EA0101818270471943C4
:1012D8008182704710B401F01F04C1F34211012349
:1012E800012903FA04F311D002290CBF103014307D
:1012F80032B902685DF8044B22EA030303607047C1
:1013080002685DF8044B1343036070470C30EFE745
:101318000388194214BF012000207047C94389B2CD
:1013280001807047C1F3421210B4012301F01F0479
:10133800012A03FA04F316D0022A0CBF028A828A11
:1013480092B21340028892B24BB1090A01238B4032
:10135800134214BF012000205DF8044B7047184663
:101368005DF8044B7047828992B21340EAE700BFE8
:10137800090A01238B40DB439BB20380704700BFFF
:1013880008B5064B1A6801321A605A6812B15A68D1
:10139800013A5A60AFF3008008BD00BFCC040020BA
:1013A800F8B5144C237A03B1F8BD0120FFF798F87B
:1013B800FFF79EF80028FBD00F4B104A1B68104D12
:1013C8001049114F1148A2FB036292099B09A5FB22
:1013D8000353013A4FF0F00E4FF0010C4A609B0A9C
:1013E80084F808C0002687F823E007258E600D6082
:1013F8000360F8BDCC04002024000020D34D621007
:101408001791650210E000E000ED00E020050020E3
:10141800044B1B7A23B1044A136843F00203136098
:10142800704700BFCC04002010E000E0024A1368B7
:1014380023F002031360704710E000E010B50820A5
:1014480082B00121FFF77CF94FF470410023032299
:101458000091012406488DF8063069468DF807305A
:101468008DF804408DF80520FFF7E8FA02B010BDAA
:10147800000C024000B5012083B00146FFF760F977
:10148800012100230322009107488DF806306946A0
:101498008DF804308DF807308DF80520FFF7CEFA67
:1014A80003B05DF804FB00BF00000240064B18695A
:1014B80010F0010006D0054B1A7812B901201870F7
:1014C80070470020704700BF00000240DC04002085
:1014D800074B1B6913F0010307D106490A7802F08C
:1014E800FF001AB10B70012070470020704700BF41
:1014F80000000240DC040020F0B583B002AD802675
:1015080008200121FFF71CF90E4C45F8086D00234F
:1015180003222046294601278DF804708DF80630ED
:101528008DF807308DF805204FF48077FFF786FA9D
:10153800294620460097FFF781FA6783268303B080
:10154800F0BD00BF000C024070B5074C074E802567
:1015580000F01F016583304600F0BEFA3046FF21D7
:1015680000F0BAFA258370BD000C0240003C004030
:1015780010B50C46FFF7E8FF204100F0010010BD50
:101588002DE9F0410A4C0B4E00F01F00802517464C
:10159800884665830146304600F09EFA304641464B
:1015A8003B46FF2200F0D4FA2583BDE8F08100BF56
:1015B800000C0240003C0040F8B5094C094E00F010
:1015C8001F0080250F46658340F02001304600F05B
:1015D80083FA3046394600F07FFA2583F8BD00BF0C
:1015E800000C0240003C004001460C20FFF7E4BF1D
:1015F80001460D20FFF7E0BF01460E20FFF7DCBFD4
:1016080001460F20FFF7D8BF70B50D4616460446B1
:10161800FFF79AFF012303FA05F13EB920EA010119
:10162800C9B22046BDE87040FFF7C6BF0143C9B242
:101638002046BDE87040FFF7BFBF00BF2DE9F0416D
:101648000A4C0B4E00F01F0080258846174640F0D4
:1016580020016583304600F03FFA304641463A465D
:1016680000F066FA2583BDE8F08100BF000C024057
:10167800003C004038B5054C4FF480750146658341
:101688000B200522FFF7DAFF258338BD000C024046
:1016980010B50146044605220A20FFF7CFFF214670
:1016A80010200522BDE81040FFF7C8BF08B5072085
:1016B80004210122FFF7A8FF072005210122FFF7D7
:1016C800A3FF072006210122FFF79EFF00200A2121
:1016D800BDE80840FFF770BF38B5104C10488025AA
:1016E8006583E22100F0F8F925830720042101220F
:1016F800FFF78AFF072005210122FFF785FF4FF436
:101708008075072006210122FFF77EFF65830020F0
:101718000B21FFF751FF258338BD00BF000C0240A5
:10172800003C0040044B4FF4807200205A83012192
:101738000246FFF769BF00BF000C02402DE9F843DD
:101748000F4C104B104E93F800804FF48077802593
:1017580067838146FFF7AAFFE1216583304600F0E1
:10176800BBF92583A0213046658300F0B5F93046E2
:101778004946424600F0DCF925832783BDE8F88313
:10178800000C024024050020003C0040F8B50B4C3A
:101798000B4E8025074665833046612100F09CF991
:1017A800084B304639463A461B7800F0ADF9258398
:1017B80007204021BDE8F840FFF7FEBE000C0240BC
:1017C800003C00402405002038B50A4C0A48802512
:1017D8006583FF2100F080F94306258301D50120A8
:1017E80038BD1720FFF7B0FE00F0010080F00100BF
:1017F80038BD00BF000C0240003C004008B517206F
:10180800FFF7A2FE00F0010008BD00BF38B5044C88
:10181800044880256583FF2100F05EF9258338BDE3
:10182800000C0240003C004038B5094C09488025AE
:101838006583FF2100F050F983065EBF80F0100039
:1018480040F30010C0B2258348BF012038BD00BF57
:10185800000C0240003C004010B5002082B0082176
:10186800FFF7AAFE01203F21FFF7A6FE0220032171
:10187800FFF7A2FE03200146FFF79EFE0420032186
:10188800FFF79AFE05200221FFF796FE06200E219B
:10189800FFF792FE07200E21FFF78EFE0820002199
:1018A800FFF78AFE09200021FFF786FEE724694634
:1018B8000A2005228DF800408DF801408DF802407D
:1018C8008DF803408DF80440FFF7B8FEC2230522C7
:1018D80069460B208DF800308DF801308DF8023004
:1018E8008DF803308DF80430FFF7A8FE0C20C321D3
:1018F800FFF762FE0D20C421FFF75EFE0E20C52112
:10190800FFF75AFE0F20C621FFF756FE052269464B
:1019180010208DF800408DF801408DF802408DF8B8
:1019280003408DF80440FFF789FE11200021FFF7DE
:1019380043FE12200021FFF73FFE13200021FFF78E
:101948003BFE14200021FFF737FE15200021FFF78A
:1019580033FE16200021FFF72FFE17201121FFF775
:101968002BFE1C200021FFF727FE1D200021FFF77A
:1019780023FE02B010BD00BF08B50820FFF7E4FD44
:1019880000F00F0008BD00BF7D28034608D8054AAF
:101998005178814204D0014605205370FFF70CBEF0
:1019A800704700BF24050020104A0B46D070917084
:1019B80070B1022814BF00212021032B0CD0022B68
:1019C8000FD0012B08BF41F002010620FFF7F4BD3C
:1019D800032B4FF00801F2D141F006010620FFF772
:1019E800EBBD41F004010620FFF7E6BD2405002009
:1019F8002DE9F843354E364C364D88468146FFF77B
:101A08007BFD3046012100F0FDFAB8F1200F28BF18
:101A18004FF0200803230027A37084F8019084F86E
:101A28000080E770FFF718FF21781120FFF7C4FD49
:101A380021781220FFF7C0FD21781320FFF7BCFDA5
:101A480021781420FFF7B8FD21781520FFF7B4FDA1
:101A580021781620FFF7B0FDE078A178FFF7A4FF02
:101A680038460821FFF7A8FD01203F21FFF7A4FD14
:101A780002203F21FFF7A0FD04204F21FFF79CFD26
:101A8800802439461C20FFF797FD30466C83E121FE
:101A980000F022F82C8330466C83E22100F01CF819
:101AA8002C83072004210122FFF7AEFD0720052122
:101AB8000122FFF7A9FD072006210122FFF7A4FD57
:101AC800FFF70AFE0120BDE8F88300BF003C004094
:101AD80024050020000C024010B5044681812046F0
:101AE8000221FFF70BFA0028F9D020460121FFF761
:101AF80005FA0028F9D020468021FFF7FFF90028D1
:101B0800F9D1A089C0B210BD83B1F8B55E1E0746F1
:101B180011FA86F64C1E551E14F8011F3846FFF7B9
:101B2800DBFFB44205F8010FF6D1F8BD704700BFDE
:101B38006AB170B5551E064611FA85F54C1E14F8A3
:101B4800011F3046FFF7C8FFAC42F8D170BD70479F
:101B58007BB1F8B55D1E1746064611FA85F54C1E91
:101B680030463946FFF7B8FF04F8010FAC42F7D109
:101B7800F8BD704710B50446818120460221FFF761
:101B8800BDF90028F9D020460121FFF7B7F9002850
:101B9800F9D020468021FFF7B1F90028F9D1A089B2
:101BA80080B210BD8BB1F8B55E1EB6B2074601EB28
:101BB80046068C1E951E34F8021F3846FFF7DAFFDA
:101BC800B44225F8020FF6D1F8BD704772B170B56E
:101BD800551EADB2064601EB45058C1E34F8021FB2
:101BE8003046FFF7C7FFAC42F8D170BD704700BF61
:101BF80083B1F8B55D1EADB21646074601EB450543
:101C08008C1E38463146FFF7B5FF24F8020FAC4268
:101C1800F7D1F8BD704700BF30B589B00023032560
:101C280002220C468DF80A308DF80B308DF80950D9
:101C38008DF80820014600283ED0012861D00121F6
:101C48004FF48050FEF7ACFD03A8FFF77BF80023A4
:101C580020214FF48272ADF81810ADF81030ADF8AD
:101C68000C30ADF81A30ADF80E2004B3012C3ED07C
:101C7800022C41D0032C05D102220123ADF81220F9
:101C8800ADF814304FF4007300212B48ADF816302E
:101C9800FFF76EF82848FEF77FFF03A92648FEF7EE
:101CA800B1FF25480121FFF763F809B030BDADF851
:101CB8001240ADF81440E5E701200146FEF740FD6B
:101CC80008A9E02341F81C3D1C48FEF7B7FE052192
:101CD8000A461A48FEF74CFF184806210522FEF767
:101CE80047FF164807210522FEF742FFA7E7ADF890
:101CF8001230ADF81440C5E7ADF81240ADF8143015
:101D0800C0E71046FEF71CFD08A9382341F81C3D22
:101D18000B48FEF793FE294609480522FEF728FFDF
:101D2800074804210522FEF723FF05210A46044837
:101D3800FEF71EFF83E700BF0030014000000240AD
:101D4800000402402DE9F04389B04FF00009012753
:101D58004FF0030802260C468DF80A908DF80B7098
:101D68008DF809808DF808600546002842D00128C2
:101D780071D0022800F08B8001214FF48040FEF7DB
:101D880003FD03A8FEF7DEFF002320214FF4827233
:101D9800ADF81810ADF81030ADF80C30ADF81A30B9
:101DA800ADF80E200CB3012C4BD0022C4ED0032CD6
:101DB80005D102220123ADF81220ADF814304FF4FA
:101DC800007300214048ADF81630FEF7D1FF3E48B9
:101DD800FEF7E2FE03A93C48FEF714FF3A4801214A
:101DE800FEF7C6FF09B0BDE8F083ADF81240ADF8C4
:101DF8001440E4E730463946FEF7A2FC08AD394600
:101E08000420FEF79DFC0C2345F81C3D2F4829466D
:101E1800FEF714FE4FF4806329462D480193FEF720
:101E28000DFE314629480522FEF7A2FE4146274805
:101E38000522FEF79DFE26480A210522FEF798FE98
:101E48009AE7ADF81230ADF81440B8E7ADF8124093
:101E5800ADF81430B3E730462946FEF771FC08A9FF
:101E68004FF4604341F81C3D1948FEF7E7FD184858
:101E78000D210522FEF77CFE15480E210522FEF7EE
:101E880077FE13480F210522FEF772FE74E73946E4
:101E98004FF48070FEF754FC08A90D2341F81C3D4F
:101EA8000B48FEF7CBFD49460A480522FEF760FEBF
:101EB800294608480522FEF75BFE414605480522EB
:101EC800FEF756FE58E700BF003800400008024001
:101ED800000402400020024030B589B000230325E9
:101EE80002220C468DF80A308DF80B308DF8095017
:101EF8008DF8082000283ED0012861D001214FF438
:101F08000040FEF741FC03A8FEF71CFF0023202138
:101F18004FF48272ADF81810ADF81030ADF80C30EF
:101F2800ADF81A30ADF80E2004B3012C3ED0022CC7
:101F380041D0032C05D102220123ADF81220ADF8BF
:101F480014304FF4007300212B48ADF81630FEF71B
:101F58000FFF2948FEF720FE03A92748FEF752FE87
:101F680025480121FEF704FF09B030BDADF8124045
:101F7800ADF81440E5E710460121FEF7E1FB08A99A
:101F8800382341F81C3D1D48FEF758FD29461B48DB
:101F98000622FEF7EDFD194804210622FEF7E8FDAA
:101FA800164805210622FEF7E3FDA7E7ADF8123033
:101FB800ADF81440C5E7ADF81240ADF81430C0E7ED
:101FC80001460420FEF7BCFB08A94FF4E05341F892
:101FD8001C3D0B48FEF732FD09480A210622FEF790
:101FE800C7FD07480B210622FEF7C2FD04480C2155
:101FF8000622FEF7BDFD81E7003C004000040240D8
:10200800000802400A4B98420AD00A4B98420BD06B
:10201800094B984200D0704708460021FFF75CBF83
:1020280008460021FFF7F8BD08460021FFF78ABEE1
:102038000030014000380040003C00400A4B984204
:102048000AD00A4B98420BD0094B984200D07047EF
:1020580008461146FFF740BF08461146FFF7DCBDAA
:1020680008461146FFF76EBE0030014000380040B8
:10207800003C0040184B98422AD003F580639842F0
:1020880028D003F58063984220D003F580639842F6
:102098001AD0124B124903F10C02884208BF1346AA
:1020A800D88860B15A899988914230B408D0511CB7
:1020B80089B21D68441EA85CDC8030BC5981704719
:1020C80000225A810121F4E7064BE9E7064BE7E7CE
:1020D800064BE5E7064BE3E70044004038000020E4
:1020E80000140140500000205C0000207400002013
:1020F80068000020194B98421DD003F58063984270
:102108001FD003F58063984221D003F5806398427D
:102118000BD0134B134903F10C02884208BF134636
:10212800D888B0FA80F0400970470F4BD888B0FAC9
:1021380080F0400970470D4BD888B0FA80F040090C
:1021480070470B4BD888B0FA80F040097047094BAC
:10215800D888B0FA80F04009704700BF00440040BA
:1021680038000020001401405000002074000020B6
:10217800680000205C000020124B98421BD003F539
:102188008063984219D003F58063984217D003F50D
:10219800806398420DD00C4B0C4903F10C02884225
:1021A80008BF1346DA889888101AB0FA80F04009F8
:1021B8007047074BF6E7074BF4E7074BF2E7074B87
:1021C800F0E700BF00440040380000200014014040
:1021D8005000002074000020680000205C000020EF
:1021E800114B984219D003F58063984217D003F534
:1021F8008063984215D003F5806398420BD00B4B4F
:102208000B4903F10C02884208BF13460022DA800A
:102218001A815A817047074BF8E7074BF6E7074BD7
:10222800F4E7074BF2E700BF004400403800002005
:1022380000140140500000207400002068000020B5
:102248005C000020194B984230B429D003F5806314
:10225800984227D003F58063984225D003F5806320
:1022680098421BD0124A134C02F10C03A04208BF3B
:102278001A46D088538978B19588146801E09BB2D2
:1022880050B19D4208BF00230138E25C8A4203F145
:10229800010380B2F3D1012030BC7047064AE8E759
:1022A800064AE6E7064AE4E7064AE2E70044004051
:1022B8003800002000140140500000207400002065
:1022C800680000205C000020F8B5334B984254D0D9
:1022D80003F58063984252D003F5806398424AD050
:1022E80003F58063984242D02C4B2D4D03F10C042A
:1022F800A84208BF2346DC880CB30E460A211546BF
:102308000746FFF79FFFE0B9234B9F423DD003F5F7
:1023180080639F423BD003F580639F4231D003F531
:1023280080639F422FD01D4B1D4903F10C028F4241
:1023380008BF1346DA889B889A4202D000242046B8
:10234800F8BD013D002D24DD002402E09CB2AC4222
:102358000FDA3846FFF78EFE0A2804F101033055DC
:10236800F4D19CB223460022F2542046F8BD0D4B0E
:10237800C1E72346F7E70C4BBDE70C4BBBE70C4B1B
:10238800B9E7094BD6E7074BD4E7084BD2E7084B28
:10239800D0E700231C46E6E7004400403800002050
:1023A80000140140500000205C0000207400002050
:1023B8006800002070B50D786DB104460E462046C1
:1023C8008021FEF7A5FF0028F9D0ADB2A58016F848
:1023D800015F002DF3D170BD10B582B004468DF8B1
:1023E800071020468021FEF793FF0028F9D09DF8BA
:1023F8000730A38002B010BD8288C38893420DD2F3
:1024080003899A4208BF0023026808BF0381D15498
:102418000289C388013201330281C380704700BF3B
:102428000F4A9042034615D002F58062904213D0BD
:1024380002F58062904211D002F58062904207D086
:102448000848094900F10C028B4208BF1046704742
:102458000648704706487047064870470648704760
:1024680000440040380000200014014050000020C3
:1024780074000020680000205C0000200E4B984289
:1024880014D003F58063984212D003F58063984214
:1024980010D003F58063984206D003F54443984270
:1024A8000CBF0620002070470520704701207047A8
:1024B80002207047042070470044004010B50121F5
:1024C80004461020FEF76CF914B1012C18D010BD89
:1024D80001200146FEF734F9154809210722FEF7C5
:1024E80047FB13480A210722FEF742FB114B10480D
:1024F8004FF4C0621946BDE810401A60FEF79EBA54
:1025080021460220FEF71CF90B4806210722FEF798
:102518002FFB07210A460848FEF72AFB054B064809
:10252800C0221946BDE810401A60FEF787BA00BFFE
:1025380000000240880500200004024010B5012177
:1025480004464FF40030FEF71FF914B1012C17D0E0
:1025580010BD01200146FEF7F3F8154802210722B5
:10256800FEF706FB124803210722FEF701FB114B79
:102578000F480C221946BDE810401A60FEF75EBAF3
:1025880021460820FEF7DCF80B4805210722FEF754
:10259800EFFA094806210722FEF7EAFA054B064832
:1025A80060221946BDE810401A60FEF747BA00BF1E
:1025B8000000024088050020000C024010B50121EF
:1025C80004464FF48020FEF7DFF824B1012C32D006
:1025D800022C18D010BD02200121FEF7B1F81E48C8
:1025E8000A210722FEF7C4FA1B480B210722FEF72F
:1025F800BFFA1A4B18484FF440621946BDE810401C
:102608001A60FEF71BBA08200121FEF799F8144852
:1026180008210722FEF7ACFA114809210722FEF724
:10262800A7FA0E4B0E484FF440721946BDE8104009
:102638001A60FEF703BA21460420FEF781F809481C
:102648000A210722FEF794FA06480B210722FEF713
:102658008FFA024B0348CEE70004024088050020A9
:10266800000C02400008024010B5012104464FF456
:102678000020FEF789F814B1012C17D010BD0120F5
:102688000146FEF75DF8214614480822FEF770FA65
:10269800124801210822FEF76BFA114B0F4803225A
:1026A8001946BDE810401A60FEF7C8B92146042053
:1026B800FEF746F80B480A210822FEF759FA09489E
:1026C8000B210822FEF754FA054B06484FF44062E6
:1026D8001946BDE810401A60FEF7B0B90000024084
:1026E800880500200008024010B5012104464FF477
:1026F8008010FEF749F804B110BD04200121FEF74F
:102708001FF808200121FEF71BF80D4C0D480C217D
:102718000822FEF72DFA0C4802210822FEF728FAB3
:102728004FF48053214607482360FEF787F90423B6
:10273800214623600448BDE81040FEF77FB900BF7A
:102748008805002000080240000C024010B5012155
:1027580004462020FEF724F814B1012C17D010BD30
:1027680004200121FDF7ECFF154806210822FEF799
:10277800FFF9134807210822FEF7FAF9114B104810
:10278800C0221946BDE810401A60FEF757B9214625
:102798004020FDF7D5FF0C480E210822FEF7E8F986
:1027A800094809210822FEF7E3F9064B06484FF4C9
:1027B80084421946BDE810401A60FEF73FB900BFD1
:1027C800000802408805002000180240F0B5884F34
:1027D800884B89B004460492022003220025012672
:1027E800BC4218715A719D71DE7100F0A880824B4D
:1027F8009C4200F0B880814B9C4200F0BA80804B2C
:102808009C4200F0C8807F4B9C423ED07E4B9C424D
:1028180067D000212046FEF783FC2046FEF796FB92
:10282800204604A9FEF7F6FB20460121FEF778FCB6
:1028380040F2255101222046FEF74CFD6E4A012345
:10284800062194428DF80F308DF80D101BD06B4B7C
:102858009C4216D003F580639C420ED0694B9C4283
:102868000DD0694B9C420CBF0624002403A88DF8A8
:102878000E40FDF7C1FD09B0F0BD0424F6E70524BC
:10288800F4E70224F2E71C46F0E70846FFF72CFFBE
:102898000C23352229462046ADF81A308DF80C2035
:1028A800ADF81C50ADF81850ADF81650ADF81450EE
:1028B800FEF736FC2046FEF749FB204604A9FEF742
:1028C800A9FB20463146FEF72BFC204640F2255155
:1028D8003246FEF7FFFC06238DF80F608DF80D30A9
:1028E800BCE70846FFF732FF002319460C222046B2
:1028F8004725ADF81C30ADF81830ADF81630ADF8F6
:102908001430ADF81A208DF80C50FEF709FC20465B
:10291800FEF71CFB204604A9FEF77CFB204601219C
:10292800FEF7FEFB0122204640F22551FEF7D2FCBD
:10293800012206238DF80F208DF80D3091E7084607
:102948000191FFF7BBFD25220C23ADF81C50ADF813
:102958001850ADF81650ADF814508DF80C20ADF89D
:102968001A30019952E708460191FFF7E7FD262240
:10297800EAE70846FFF722FE27220C23ADF81C5091
:10298800ADF81850ADF81650ADF814508DF80C206D
:10299800ADF81A303DE70846FFF766FE0C233422EF
:1029A80029462046ADF81A308DF80C20ADF81C5099
:1029B800ADF81850ADF81650ADF81450FEF7B0FB4E
:1029C8002046FEF7C3FA204604A9FEF723FB20465B
:1029D8003146FEF7A5FB204640F225513246FEF768
:1029E80079FC06238DF80F608DF80D302FE700BFB6
:1029F80000100140880500200044004000480040C5
:102A0800004C0040005000400014014010B5074C35
:102A180040F225512046FEF785FC00B910BDA1887B
:102A28000348C9B2BDE81040FFF7E6BC00100140FA
:102A38003800002010B5074C40F225512046FEF71B
:102A480071FC00B910BDA1880348C9B2BDE81040A7
:102A5800FFF7D2BC004400407400002010B5074CBA
:102A680040F225512046FEF75DFC00B910BDA18853
:102A78000348C9B2BDE81040FFF7BEBC004800409B
:102A88006800002010B5074C40F225512046FEF79B
:102A980049FC00B910BDA1880348C9B2BDE810407F
:102AA800FFF7AABC004C00405C00002010B5074CA2
:102AB80040F225512046FEF735FC00B910BDA1882B
:102AC8000348C9B2BDE81040FFF796BC005000406B
:102AD8005000002010B5074C40F225512046FEF763
:102AE80021FC00B910BDA1880348C9B2BDE8104057
:102AF800FFF782BC0014014044000020E42E0008C7
:102B080000000020AC040020B0040020F0050020E4
:102B180038B5FDF79DFBFEF743FCFEF78FFC4FF43D
:102B2800E1321448144D0121FFF750FE20210F20F7
:102B3800FEF75EFF00200146FEF736FF0F48FEF75E
:102B480099FD0F48FEF7A4FD4FF48054FEF73CFEB4
:102B58000028FBD00B48FEF719FE0A48FEF7EEFDE9
:102B68002C83FEF761FEFF28FBD06C83FEF7B4FDD3
:102B7800ECE700BF00100140000C024004000020F8
:102B88000C000020E0040020002103E00B4B5B5800
:102B9800435004310A480B4B42189A42F6D30A4A6A
:102BA80002E0002342F8043B084B9A42F9D3FDF7B0
:102BB8004FFB00F01FF8FFF7ABFF7047E42E00084B
:102BC80000000020AC040020B0040020F005002024
:102BD800FEE7000008B50021044600F08BF8044B1E
:102BE8001868C36B03B19847204600F06DF900BF21
:102BF800B02E000870B50F4E0F4D761BB61018BFDB
:102C0800002405D0013455F8043B9847A642F9D171
:102C18000A4E0B4D761B00F04BF9B61018BF002476
:102C280006D0013455F8043B9847A642F9D170BD47
:102C380070BD00BFD82E0008D82E0008E02E00086E
:102C4800D82E000870B4840746D0541E002A41D0FC
:102C5800CDB2034602E0621EE4B3144603F8015BFA
:102C68009A07F8D1032C2ED9CDB245EA05250F2CA9
:102C780045EA054519D903F110022646103E0F2EE4
:102C880042F8105C42F80C5C42F8085C42F8045CBC
:102C980002F11002F2D8A4F1100222F00F0204F09F
:102CA8000F041032032C13440DD91E462246043A51
:102CB800032A46F8045BFAD8221F22F003020432E2
:102CC800134404F003042CB1C9B21C4403F8011BDB
:102CD800A342FBD170BC704714460346C2E700BF4D
:102CE800024B13B1024800F06FB8704700000000B3
:102CF800DD2D00082DE9F04F314B83B01B680093A0
:102D080003F5A47381460E460193009BD3F84871DE
:102D180027B3DDF804A07C68651E0ED4013407EBE8
:102D280084044FF00008E6B1D4F80031B34218D05B
:102D3800013D6B1CA4F10404F5D1224B73B17B68EF
:102D4800002B36D13B68002B34D03846CAF8003007
:102D5800AFF30080DAF80070002FDCD103B0BDE8D3
:102D6800F08F7B682268013BAB420CBF7D60C4F8E2
:102D78000080002ADCD0D7F88831D7F804B00121C8
:102D8800A940194208D190477B685B45BDD1DAF864
:102D98000030BB42CCD0B8E7D7F88C31194204D107
:102DA8004846D4F880109047EEE7D4F88000904762
:102DB800EAE73B68BA461F46002FACD1CEE700BF12
:102DC800B02E00080000000001460020024603461D
:102DD80000F016B838B5084B084DED1AAC1018BFFE
:102DE800ED1805D0013C55F8043D9847002CF9D161
:102DF800BDE8384000F062B8E02E0008E42E000874
:102E08002DE9F047254C2568D5F8484106468846FF
:102E180092469946CCB360681F2818DC431C7EB1E3
:102E280004EB80050121C5F888A0D4F8887101FA5F
:102E380000F21743022EC4F88871C5F808911ED015
:102E48000230636044F820800020BDE8F087144B0E
:102E580003B34FF4C870AFF300800446D0B1D5F87F
:102E68004831002780E88800C5F8484138460123E2
:102E7800C4F88871C4F88C71002EE1D0D0E7D4F87A
:102E88008C110A43C4F88C21DAE705F5A674C5F855
:102E98004841C0E74FF0FF30BDE8F087B02E00088A
:102EA8000000000043000000800000200000000037
:102EB800F8B500BFF8BC08BC9E467047F8B500BF1F
:082EC800F8BC08BC9E467047EF
:082ED00014D3FF7F0100000094
:082ED800E92C0008AD0100081F
:042EE000890100085C
:102EE400000000007E7E7E7E7E000000E7E7E7E7CC
:102EF400E7000000000000000000000001020304DD
:102F040006070809007A030A00000000010203040E
:102F14000102030406070809B00500202000000090
:102F24000000000048050020200000000000000010
:102F3400280500202000000000000000D00500202B
:102F440020000000000000006805002020000000B0
:102F54000000000090050020200000000000000098
:102F6400000000006C030020D40300203C04002077
:102F7400000000000000000000000000000000004D
:102F8400000000000000000000000000000000003D
:102F940000000000AC2E000800000000000000004B
:102FA400000000000000000000000000000000001D
:102FB400000000000000000000000000000000000D
:102FC40000000000000000000000000000000000FD
:102FD40000000000000000000000000000000000ED
:102FE40000000000000000000000000000000000DD
:102FF40000000000000000000000000000000000CD
:1030040000000000000000000100000000000000BB
:103014000E33CDAB34126DE6ECDE05000B00000080
:10302400000000000000000000000000000000009C
:10303400000000000000000000000000000000008C
:10304400000000000000000000000000000000007C
:10305400000000000000000000000000000000006C
:0C3384000000000000000000800000209D
:043390000000000039
:0400000508002B9133
:00000001FF
