:020000040800F2
:100000000004002081020008DD020008DD02000873
:10001000DD020008DD020008DD020008000000002B
:10002000000000000000000000000000DD020008E9
:10003000DD02000800000000DD020008DD0200080B
:10004000DD020008DD020008DD020008DD02000814
:10005000DD020008DD020008DD020008DD02000804
:10006000DD020008DD020008DD020008DD020008F4
:10007000DD020008DD020008DD020008DD020008E4
:10008000DD020008DD020008DD020008DD020008D4
:10009000DD020008DD020008DD020008DD020008C4
:1000A000DD020008DD020008DD020008DD020008B4
:1000B000DD020008DD020008DD020008DD020008A4
:1000C000DD020008DD020008DD020008DD02000894
:1000D000DD020008DD020008DD020008DD02000884
:1000E000DD020008DD020008DD020008000000005B
:1000F0000000000000000000000000000000000000
:1001000000000000000000005FF808F180B500AFBB
:10011000154A154B1B6843F0010313601249124B3B
:100120005A68124B13404B600F4A0F4B1B6823F069
:10013000847323F4803313600B4A0B4B1B6823F446
:1001400080231360084A084B5B6823F4FE03536066
:10015000054B4FF41F029A6000F00CF8044B4FF06F
:1001600000629A6080BD00BF001002400000FFF8EE
:1001700000ED00E080B500AF00F002F880BD00BFE8
:1001800080B483B000AF00237B6000233B603A4A19
:10019000394B1B6843F480331360374B1B6803F4FF
:1001A00000333B607B6801337B603B68002B03D1ED
:1001B0007B68B3F5A06FF0D12F4B1B6803F40033BD
:1001C000002B02D001233B6001E000233B603B6831
:1001D000012B4BD1294A294B1B6843F010031360B4
:1001E000264A264B1B6823F003031360234A234B44
:1001F0001B6843F0020313601F4A1F4B5B68536088
:100200001D4A1D4B5B6853601B4A1B4B5B6843F4E4
:1002100080635360184A184B5B6823F47C13536067
:10022000154A154B5B6843F4E8135360124A124BAE
:100230001B6843F08073136000BF0F4B1B6803F013
:100240000073002BF9D00C4A0B4B5B6823F00303BF
:100250005360094A084B5B6843F00203536000BFD8
:10026000054B5B6803F00C03082BF9D10C37BD4636
:100270005DF8047B704700BF001002400020024080
:1002800080B582B000AF104B7B60104B3B6007E045
:100290003B681A1D3A607A68111D796012681A600D
:1002A0003B680B4A9342F3D30A480B494FF00002D4
:1002B0008842B8BF40F8042BFADBFFF727FF00F0B5
:1002C000E1F80837BD4680BD180500080000002091
:1002D00000000020000000200000002080B400AFDB
:1002E000FEE700BF80B489B000AF786039600023BA
:1002F000FB6100233B610023BB610023FB60002303
:100300007B610023BB603B68DB7803F00F03FB617C
:100310003B68DB7803F01003002B05D03B689B782B
:100320001A46FB691343FB613B681B88DBB2002B59
:1003300044D07B681B687B610023BB6138E0BB69EC
:10034000012202FA03F3FB603B681B881A46FB6834
:1003500013403B613A69FB689A4226D1BB699B0016
:10036000FB60FB680F2202FA03F3BB60BB68DB4350
:100370007A6913407B61FB68FA6902FA03F37A69D0
:1003800013437B613B68DB78282B05D1BB690122D5
:100390009A407B685A6108E03B68DB78482B04D1BF
:1003A000BB6901229A407B681A61BB690133BB615A
:1003B000BB69072BC3D97B687A691A603B681B88C5
:1003C000FF2B4AD97B685B687B610023BB613EE001
:1003D000BB6908331A4601239340FB603B681B88C6
:1003E0001A46FB6813403B613A69FB689A422BD17D
:1003F000BB699B00FB60FB680F2202FA03F3BB6042
:10040000BB68DB437A6913407B61FB68FA6902FAD7
:1004100003F37A6913437B613B68DB78282B07D1B0
:10042000BB6908331A46012303FA02F27B685A615A
:100430003B68DB78482B07D1BB6908331A46012398
:1004400003FA02F27B681A61BB690133BB61BB69C5
:10045000072BBDD97B687A695A602437BD465DF8A1
:10046000047B704780B483B000AF786002E07B68A3
:10047000013B7B607B68002BF9D10C37BD465DF8F2
:10048000047B704780B582B000AF1020012100F0DE
:1004900025F84FF40053BB801023FB710323BB717D
:1004A0003B1D0B481946FFF71DFF094A084BDB6847
:1004B00043F40053D3600748FFF7D4FF044A044BCA
:1004C000DB6823F40053D3600348FFF7CBFFECE76E
:1004D00000100140FFFF0200FFFF0F0080B483B057
:1004E00000AF78600B46FB70FB78002B06D0094903
:1004F000084B9A697B6813438B6106E00549054BFD
:100500009A697B68DB4313408B610C37BD465DF80D
:08051000047B7047001002405B
:0400000508000000EF
:00000001FF
